:100000000C948F000C94B7000C94B7000C94FE076E
:100010000C94B7000C94B7000C94B7000C94B70084
:100020000C94B7000C94B7000C94B7000C94EF0735
:100030000C94B7000C94B7000C94B7000C94B70064
:100040000C94A5070C94B7000C9473070C944D07FF
:100050000C94B7000C94B7000C94B7000C94B70044
:100060000C94B7000C94B70008000000BE9224491D
:10007000123EABAAAA2ABECDCCCC4C3E00000080DA
:10008000BEABAAAAAA3E00000000BF000000803F4D
:100090000000000000084178D3BB4387D1133D190D
:1000A0000E3CC3BD4282AD2B3E68EC8276BED98F3A
:1000B000E1A93E4C80EFFFBE01C4FF7F3F0000007E
:1000C000000000000000240027002A0000000000BB
:1000D000250028002B00000000080002010000039A
:1000E00004070000000000000000000000002300E2
:1000F0002600290004040404040404040202020289
:1001000002020303030303030102040810204080DA
:10011000010204081020010204081020D208112452
:100120001FBECFEFD8E0DEBFCDBF11E0A0E0B1E051
:10013000E4E2FCE102C005900D92A63BB107D9F7BD
:1001400022E0A6EBB1E001C01D92A938B207E1F7A9
:1001500010E0CFE8D0E004C02197FE010E940A0E13
:10016000CE38D107C9F70E943D090C94100E0C94AB
:100170000000CF92DF92EF92FF92CF93DF93C82FD0
:10018000809164028C3009F45EC038F48B30F1F059
:1001900060E070E080EC9FE74FC085518230C0F78F
:1001A000D09160026D2F70E0762F662766277F77EB
:1001B00080916102682B90E080E00E94320C2DEC6F
:1001C0003CEC4CEC5DE30E94410D59C06091600233
:1001D00070E090E080E00E94320C6B017C01D091D5
:1001E0006102D7FF0AC0AC019B0160E070E080E8CB
:1001F0009FEB0E94180B6B017C01DF706D2F70E08C
:1002000090E080E00E94340C2DEC3CEC4CEC5DE383
:100210000E94410DA70196010E94190BCC2361F0A9
:1002200026E636E646EE5FE30E94410D20E030E030
:1002300040E052E40E94190BDF91CF91FF90EF90C4
:10024000DF90CF900895D09160026D2F70E090E024
:1002500080E00E94320C6B017C01609161026F7042
:1002600070E090E080E00E94340C2DEC3CEC4CEC13
:100270005DE30E94410DA70196010E94190BD7FF73
:10028000CDCF9058CBCFCF92DF92EF92FF92CF930A
:10029000DF93B0916502A0E08111AB2F80916602DF
:1002A00090E0880F991FAC0146515F4FC0906B02E0
:1002B000D0906C02E0906D02F0906E0230E020E091
:1002C000FA01C591D491E881B90190E080E0EB2377
:1002D000EA130AC02F5F3F4F6C157D058E059F0501
:1002E00078F36FEF7FEFCB01DF91CF91FF90EF902D
:1002F000DF90CF900895AF92BF92CF92DF92EF92AE
:10030000FF920F931F93CF93DF936C017B018B01BF
:10031000040F151FEB015E01AE18BF08C017D1070F
:1003200059F06991D601ED91FC910190F081E02D99
:10033000C6010995892B79F7C501DF91CF911F91EE
:100340000F91FF90EF90DF90CF90BF90AF90089506
:10035000FC01538D448D252F30E0842F90E0821BCB
:10036000930B541710F0CF96089501970895FC0150
:10037000918D828D981761F0A28DAE0FBF2FB11DA8
:100380005D968C91928D9F5F9F73928F90E0089500
:100390008FEF9FEF0895FC01918D828D981731F0BA
:1003A000828DE80FF11D858D90E008958FEF9FEF0E
:1003B0000895FC01918D228D892F90E0805C9F4FE4
:1003C000821B91098F739927089581EC91E00E9417
:1003D000D90121E0892B09F420E0822F089580E0E3
:1003E00090E0892B29F00E94E50181110C94000016
:1003F0000895FC01A48DA80FB92FB11DA35ABF4FBA
:100400002C91848D90E001968F739927848FA68913
:10041000B7892C93A089B1898C91837080648C9367
:10042000938D848D981306C00288F389E02D808116
:100430008F7D80830895EF92FF920F931F93CF9348
:10044000DF93EC0181E0888F9B8D8C8D98131AC00F
:10045000E889F989808185FF15C09FB7F894EE89F6
:10046000FF896083E889F989808183708064808353
:100470009FBF81E090E0DF91CF911F910F91FF909E
:10048000EF900895F62E0B8D10E00F5F1F4F0F7346
:100490001127E02E8C8D8E110CC00FB607FCFACF01
:1004A000E889F989808185FFF5CFCE010E94F901A5
:1004B000F1CFEB8DEC0FFD2FF11DE35AFF4FF082D2
:1004C0009FB7F8940B8FEA89FB8980818062CFCF38
:1004D000CF93DF93EC01888D8823B9F0AA89BB897B
:1004E000E889F9898C9185FD03C0808186FD0DC066
:1004F0000FB607FCF7CF8C9185FFF2CF808185FF87
:10050000EDCFCE010E94F901E9CFDF91CF9108959F
:1005100090E0FC01EA52FF4F2491FC01E85FFE4F9E
:100520003491FC01EC50FF4FE491EE23C9F02223FB
:1005300039F0233001F1A8F4213019F1223029F1EA
:10054000F0E0EE0FFF1FE453FF4FA591B4918FB77A
:10055000F894EC91611126C030953E233C938FBFF7
:1005600008952730A9F02830C9F0243049F7809148
:1005700080008F7D03C0809180008F778093800002
:10058000DFCF84B58F7784BDDBCF84B58F7DFBCF84
:100590008091B0008F778093B000D2CF8091B0006F
:1005A0008F7DF9CF3E2BDACFCF93DF9390E0FC0124
:1005B000E85FFE4F24918C509F4FFC01849188236B
:1005C000C9F090E0880F991FFC01EE53FF4FA591F1
:1005D000B491FC01E453FF4FC591D49161110DC05A
:1005E0009FB7F8948C91209582238C93888128233F
:1005F00028839FBFDF91CF910895623051F49FB758
:10060000F8943C91822F809583238C93E8812E2B44
:10061000EFCF8FB7F894EC912E2B2C938FBFEACFAE
:100620003FB7F8948091B8019091B901A091BA01B7
:10063000B091BB0126B5A89B05C02F3F19F00196CC
:10064000A11DB11D3FBFBA2FA92F982F8827BC012C
:10065000CD01620F711D811D911D42E0660F771F54
:10066000881F991F4A95D1F708958F929F92AF9254
:10067000BF92CF92DF92EF92FF924B015C010E94FA
:1006800010036B017C010E9410036C197D098E0917
:100690009F09683E734081059105A8F321E0821A05
:1006A0009108A108B10888EEC80E83E0D81EE11CAD
:1006B000F11C81149104A104B10429F7FF90EF907B
:1006C000DF90CF90BF90AF909F908F900895CF9282
:1006D000DF92EF92FF920F931F93CF93DF93CDB7EB
:1006E000DEB7C054D1400FB6F894DEBF0FBECDBF09
:1006F0002FB7F8948091BD019091BE01A091BF01E8
:10070000B091C0012FBF4091670250916802609183
:10071000690270916A028C019D01041B150B260B66
:10072000370BB901A801403D57406105710590F4B0
:1007300080916F02C05CDE4F0FB6F894DEBF0FBE33
:10074000CDBFDF91CF911F910F91FF90EF90DF9080
:10075000CF9008958093670290936802A0936902F6
:10076000B0936A02109262021092610210926002CB
:1007700010925F0210925E0262E0809163020E941A
:10078000D40261E070E080E090E00E94350361E017
:10079000809163020E94D40260E0809163020E9413
:1007A0008802809164028551823020F58BE291E1CC
:1007B0000197F1F762E0809163020E94D402809178
:1007C000700290E08230910538F0880F991F880FF1
:1007D000991F05970197F1F7F89480E00E94430173
:1007E0006F3F7F4F8F4F9F4F61F410926F0278944D
:1007F00080E0A0CF64E170E080E090E00E943503EB
:10080000D9CF81E00E9443016F3F7F4F8F4F9F4FB1
:1008100061F38E010F5F1F4F6E018FEBC81A8EEFD1
:10082000D80A780180E00E944301F7016083718358
:100830008283938381E00E944301F701648375837F
:1008400086839783F8E0EF0EF11CEC14FD0451F75A
:10085000789430E020E0F801C080D180E280F3801D
:100860004481558166817781FFEFCF16DF06EF0661
:10087000FF0631F04F3F8FEF58076807780719F4EC
:1008800010926F02B5CFF90183E0F595E7958A954F
:10089000E1F7E25AFD4F8081880FC416D506E606BF
:1008A000F70610F180832F5F3F4F085F1F4F2832FC
:1008B000310589F64091620220915E0280915F02CB
:1008C000280F3327331F80916002280F311D80913C
:1008D0006102820F932F911D99274817190681F6FF
:1008E00081E080936F0226CF8160DCCF089590E095
:1008F00080E00895CF93DF93EC0160E08E810E9449
:10090000880261E08E810E94880260E08E810E94F0
:1009100088028BE891E00197F1F7DF91CF9108957C
:10092000CF92DF92EF92FF920F931F93CF93DF93BB
:100930006C017C0187E0E80EF11CD0E0C0E0062FDE
:1009400010E0B8010C2E02C0759567950A94E2F785
:100950006170F70181917F010E9488022196C43065
:10096000D10579F7C601DF91CF911F910F91FF90CB
:10097000EF90DF90CF900C947A04CF92DF92EF92B9
:10098000FF920F931F93CF93DF93EC01F62E642F0A
:100990008C810E9488028D818F3F19F060E00E9457
:1009A00088020F2D10E08F8584FF25C06E0187E03F
:1009B000C80ED11CF12CE12CB8010E2C02C075958B
:1009C00067950A94E2F76170F60181916F010E94C8
:1009D0008802FFEFEF1AFF0A88E0E816F10461F7DA
:1009E000CE01DF91CF911F910F91FF90EF90DF909B
:1009F000CF900C947A04B80184E0759567958A9538
:100A0000E1F7CE010E9490046F2DCE01DF91CF91CE
:100A10001F910F91FF90EF90DF90CF900C94900476
:100A200040E0682F81E792E00C94BD04CF93DF9300
:100A3000823029F490918002986090938002809394
:100A400084021092850280E48093860280E1809384
:100A5000870280E58093880261E0809175020E94A0
:100A6000D402809176028F3F19F061E00E94D40297
:100A700061E0809177020E94D402C1E7D2E09E013A
:100A8000215732408091800284FD0BC084E090E0C9
:100A900021962817390744F461E08E810E94D40220
:100AA000EECF88E090E0F4CF8BE39DE00197F1F783
:100AB00060E0809175020E94880260E08091770278
:100AC0000E948802809176028F3F19F060E00E94B8
:100AD00088028091800284FD39C063E081E792E062
:100AE0000E949004CBE4D6E4CE010197F1F763E0D5
:100AF00081E792E00E9490042197F1F763E081E79B
:100B000092E00E94900483E592E00197F1F762E0A1
:100B100081E792E00E9490048091800280620E94AE
:100B2000100584E0809381028CE00E94100581E032
:100B30000E9410058BE39FE10197F1F782E080931B
:100B4000820286E0DF91CF910C94100580620E94B2
:100B500010058BE496E40197F1F7809180028062A2
:100B60000E94100583E592E00197F1F780918002E1
:100B700080620E941005D0CF41E00E94BD0481E058
:100B800090E00895FB0101900020E9F73197AF0153
:100B9000461B570BDC01ED91FC910280F381E02DA7
:100BA00009948F929F92AF92BF92EF92FF920F9310
:100BB0001F93CF93DF93CDB7DEB7A1970FB6F8940D
:100BC000DEBF0FBECDBF7C01FA01CB0119A22230DE
:100BD00008F42AE08E010F5D1F4F822E912CB12C5C
:100BE000A12CBF01A50194010E94E80DF901CA01E1
:100BF0006A300CF5605DD8016E938D01232B242B98
:100C0000252B79F790E080E0109721F0BD01C70116
:100C10000E94C205A1960FB6F894DEBF0FBECDBFED
:100C2000DF91CF911F910F91FF90EF90BF90AF9008
:100C30009F908F900895695CDECFCF92DF92EF9204
:100C4000FF920F931F93CF93DF936B01770FEE0803
:100C5000FF08F7FE1FC0EC01E881F9810190F081E7
:100C6000E02D6DE209958C0144275527BA014C19F6
:100C70005D096E097F092AE0CE010E94D105800F2F
:100C8000911FDF91CF911F910F91FF90EF90DF9017
:100C9000CF9008952AE0B701A601DF91CF911F916F
:100CA0000F91FF90EF90DF90CF900C94D1054F9271
:100CB0005F926F927F928F929F92AF92BF92CF92EC
:100CC000DF92EF92FF920F931F93CF936B017C0102
:100CD000742EAC019B010E94AE0D6EE171E081119A
:100CE00026C046015701E894B7F82FEF3FEF4FE7D2
:100CF0005FE7C501B4010E94AE0D81110CC02FEF5A
:100D00003FEF4FE75FE7C501B4010E94850B62E248
:100D100071E0181664F02FEF3FEF4FE75FE4C70173
:100D2000B6010E94E40C1816ACF466E271E081ECA6
:100D300091E0CF911F910F91FF90EF90DF90CF90B6
:100D4000BF90AF909F908F907F906F905F904F90EB
:100D50000C94C2052FEF3FEF4FE75FECC701B601E0
:100D60000E94850B87FDE1CF20E030E0A901C7019B
:100D7000B6010E94850B10E000E087FF0AC06DE21B
:100D800081EC91E00E941B028C01F7FAF094F7F8D5
:100D9000F094C0E060E070E080E09FE37C1641F0FA
:100DA00020E030E040E251E40E948A0BCF5FF6CFB2
:100DB000A70196010E94190B2B013C010E94030C14
:100DC0004B015C012AE0BC01A40181EC91E00E948E
:100DD000D1057C01E00EF11ECC23D1F1C501B40197
:100DE0000E94320C9B01AC01C301B2010E94180B9E
:100DF0004B015C016EE281EC91E00E941B02E80E67
:100E0000F91EC15028F120E030E040E251E4C50174
:100E1000B4010E94410D2B013C010E94030C4B01C7
:100E2000B12CA12C2AE0B501A40181EC91E00E9433
:100E3000D105E80EF91EC501B4010E94320C9B01D8
:100E4000AC01C301B2010E94180B4B015C01D9CF68
:100E5000C701CF911F910F91FF90EF90DF90CF903E
:100E6000BF90AF909F908F907F906F905F904F90CA
:100E700008950F931F93CF93DF93EC010E94C20557
:100E80008C016AE271E0CE010E94C205800F911FC1
:100E9000DF91CF911F910F9108951F920F920FB67E
:100EA0000F9211242F933F934F935F936F937F93F0
:100EB0008F939F93AF93BF93EF93FF9381EC91E058
:100EC0000E94F901FF91EF91BF91AF919F918F9196
:100ED0007F916F915F914F913F912F910F900FBE36
:100EE0000F901F9018951F920F920FB60F9211241A
:100EF0002F938F939F93EF93FF93E091D101F09104
:100F0000D2018081E091D701F091D80182FD1BC010
:100F100090818091DA018F5F8F732091DB018217BE
:100F200041F0E091DA01F0E0EF53FE4F958F8093AE
:100F3000DA01FF91EF919F918F912F910F900FBE4A
:100F40000F901F9018958081F4CF1F920F920FB6CB
:100F50000F9211242F933F938F939F93AF93BF933F
:100F60008091BD019091BE01A091BF01B091C001DF
:100F70003091B70123E0230F2D3758F50196A11DBD
:100F8000B11D2093B7018093BD019093BE01A09342
:100F9000BF01B093C0018091B8019091B901A091B7
:100FA000BA01B091BB010196A11DB11D8093B8019A
:100FB0009093B901A093BA01B093BB01BF91AF91D7
:100FC0009F918F913F912F910F900FBE0F901F9087
:100FD000189526E8230F0296A11DB11DD2CF1F92AE
:100FE0000F920FB60F9211248F9381E08093BC0172
:100FF0008F910F900FBE0F901F9018951F920F9218
:101000000FB60F9211248F929F92AF92BF92CF9200
:10101000DF92EF92FF920F931F932F933F934F9383
:101020005F936F937F938F939F93AF93BF93CF9370
:10103000DF93EF93FF93189B98C081E480937C002B
:1010400080917A00806480937A0080917A0086FD96
:10105000FCCF8091780060917900762F682F072E61
:10106000000C880B990B0E94340C2AE038E240EA0D
:101070005BE30E94410D4B015C0120E030E040EA5F
:1010800050E40E948A0B0E94E90C20E030E040EA24
:1010900051E40E94410D6B017C0120E030E0A90188
:1010A0000E94E40C181624F0F7FAF094F7F8F09484
:1010B00066E971E081EC91E00E94C20544E0C5015F
:1010C000B4010E94570667EA71E081EC91E00E944A
:1010D000C20542E0C701B6010E9457066BEA71E003
:1010E00081EC91E00E94390723E333E343EC50E4C1
:1010F000C701B6010E94E40C87FD37C02AE939E92F
:1011000049EC50E4C701B6010E94850B18166CF13A
:101110006EEA71E081EC91E00E94390760E085E0C1
:101120000E948802C7E0D0E007E010E0B8010C2E72
:1011300002C0759567950A94E2F761708AE00E9493
:10114000880261E080E10E94880260E080E10E9404
:101150008802219758F761E085E00E94880280911B
:10116000B60191E089278093B601FF91EF91DF915D
:10117000CF91BF91AF919F918F917F916F915F912F
:101180004F913F912F911F910F91FF90EF90DF9022
:10119000CF90BF90AF909F908F900F900FBE0F9009
:1011A0001F901895E1ECF1E01382128288EE93E033
:1011B000A0E0B0E084839583A683B78384E091E0C8
:1011C0009183808385EC90E09587848784EC90E020
:1011D0009787868780EC90E0918B808B81EC90E004
:1011E000938B828B82EC90E0958B848B86EC90E0E5
:1011F000978B868B118E128E138E148EE1E7F2E0A0
:101200001382128286E191E09183808383E184835B
:101210008FEF858382E1868389E0878387E08087FB
:1012200086E0818784E08287138614861586168679
:10123000178681E00E941605AEE5B2E08EE01596B5
:101240008C9315978BE016968C931697E6E1F1E058
:10125000E4911796EC931797E2E0F1E0E491189689
:10126000EC93189740E85EE360E070E01D964D93C4
:101270005D936D937C9350970895789484B58260C4
:1012800084BD84B5816084BD85B5826085BD85B52A
:10129000816085BD80916E00816080936E001092A8
:1012A0008100809181008260809381008091810023
:1012B00081608093810080918000816080938000B4
:1012C0008091B10084608093B1008091B000816012
:1012D0008093B00080917A00846080937A0080913E
:1012E0007A00826080937A0080917A008160809396
:1012F0007A0080917A00806880937A001092C10011
:10130000F894109280001092810010928500109243
:10131000840088E09DE39093890080938800809109
:101320008100886080938100809181008560809336
:10133000810080916F00826080936F00789480912B
:101340006B00816080936B00D89A80916800816007
:1013500080936800E091D101F091D20182E0808316
:10136000E091CD01F091CE011082E091CF01F0919A
:10137000D0018FEC80831092D901E091D501F091DA
:10138000D60186E08083E091D301F091D401808181
:1013900080618083E091D301F091D40180818860E5
:1013A0008083E091D301F091D401808180688083B3
:1013B000E091D301F091D40180818F7D80836DE233
:1013C00071E081EC91E00E94390782E00E941605ED
:1013D00060E08FE00E94D40260E088E00E94D402C6
:1013E00061E08AE00E94D40261E085E00E94D402BC
:1013F00061E080E10E94D40262E0809163020E9479
:10140000D4022FB7F8948091BD019091BE01A091B4
:10141000BF01B091C0012FBF805D9740A109B10904
:101420008093670290936802A0936902B0936A0266
:1014300087E380937002C0E0D0E08091BC018823F4
:1014400009F471C00E946703882351F080916402FF
:101450008B3030F08D3048F08551823008F46EC00A
:1014600060E070E080EC9FE71CC060915F0270E07C
:1014700090E080E00E94340C2DEC3CEC4CEC5DE301
:101480000E94410D6B017C0160915E0270E090E072
:1014900080E00E94340C9B01AC01C701B6010E94A0
:1014A000190B0E94FC0B4B010E946703882309F46F
:1014B00057C080E00E94B9000E94FC0B6B010E94A3
:1014C0006703882309F451C081E00E94B9002B0111
:1014D0003C01B401092C000C880B990B0E94340CC0
:1014E0009B01AC010E94AE0D811115C0B6010D2CFF
:1014F000000C880B990B0E94340C9B01AC010E94DC
:10150000AE0D811108C0A3019201C301B2010E9476
:10151000AE0D882389F169E371E081EC91E00E94CE
:1015200039071092BC01209709F487CF0E94E5018A
:10153000882309F482CF0E9400007FCF60915E0271
:1015400070915F0276276727762790E080E00E94FF
:10155000320C2DEC3CEC4CEC5DE30E94410DA1CF34
:1015600060E070E080EC9FE7A7CF412C512C80EC2D
:10157000682E8FE7782EADCFE1E080918402811153
:10158000E0E0E195F0E0EF58FD4F848980680E942B
:10159000100569E571E081E792E00E94C205B4019F
:1015A00081E792E00E941D0663E671E081E792E028
:1015B0000E94C205E0918402E230C0F5E150F0E003
:1015C000EF58FD4F848980680E94100565E671E040
:1015D00081E792E00E94C205B60181E792E00E9495
:1015E0001D0662E771E081E792E00E94390765E736
:1015F00071E081EC91E00E94C205B40181EC91E0C0
:101600000E941D0660E871E081EC91E00E94C20535
:1016100063E871E081EC91E00E94C205B60181ECC3
:1016200091E00E941D0661E971E077CFE1E0C7CF4C
:101630005058BB27AA270E94300B0C94AA0C0E947A
:101640009C0C38F00E94A30C20F039F49F3F19F451
:1016500026F40C94990C0EF4E095E7FB0C94930C93
:10166000E92F0E94BB0C58F3BA176207730784076F
:10167000950720F079F4A6F50C94DD0C0EF4E095B6
:101680000B2EBA2FA02D0B01B90190010C01CA013C
:10169000A0011124FF27591B99F0593F50F4503EE7
:1016A00068F11A16F040A22F232F342F4427585FD9
:1016B000F3CF469537952795A795F0405395C9F7F1
:1016C0007EF41F16BA0B620B730B840BBAF09150A9
:1016D000A1F0FF0FBB1F661F771F881FC2F70EC048
:1016E000BA0F621F731F841F48F48795779567951B
:1016F000B795F7959E3F08F0B0CF9395880F08F007
:101700009927EE0F9795879508950E946F0C08F41E
:1017100081E008950E949E0B0C94AA0C0E94A30CD9
:1017200058F00E949C0C40F029F45F3F29F00C9483
:10173000930C51110C94DE0C0C94990C0E94BB0C70
:1017400068F39923B1F3552391F3951B550BBB27F0
:10175000AA2762177307840738F09F5F5F4F220F35
:10176000331F441FAA1FA9F335D00E2E3AF0E0E82C
:1017700032D091505040E695001CCAF72BD0FE2F76
:1017800029D0660F771F881FBB1F2617370748070A
:10179000AB07B0E809F0BB0B802DBF01FF279358C2
:1017A0005F4F3AF09E3F510578F00C94930C0C94E7
:1017B000DE0C5F3FE4F3983ED4F38695779567950A
:1017C000B795F7959F5FC9F7880F911D96958795F7
:1017D00097F90895E1E0660F771F881FBB1F621716
:1017E00073078407BA0720F0621B730B840BBA0BD4
:1017F000EE1F88F7E09508950E94030C6894B111DC
:101800000C94DE0C08950E94C30C88F09F5798F04A
:10181000B92F9927B751B0F0E1F0660F771F881FF5
:10182000991F1AF0BA95C9F714C0B13091F00E940F
:10183000DD0CB1E008950C94DD0C672F782F88271C
:10184000B85F39F0B93FCCF3869577956795B39536
:10185000D9F73EF490958095709561957F4F8F4FA5
:101860009F4F0895E89409C097FB3EF490958095AA
:10187000709561957F4F8F4F9F4F9923A9F0F92F56
:1018800096E9BB279395F695879577956795B795D4
:10189000F111F8CFFAF4BB0F11F460FF1BC06F5FBA
:1018A0007F4F8F4F9F4F16C0882311F096E911C0CC
:1018B000772321F09EE8872F762F05C0662371F0ED
:1018C00096E8862F70E060E02AF09A95660F771F01
:1018D000881FDAF7880F9695879597F90895990FDD
:1018E0000008550FAA0BE0E8FEEF16161706E807EA
:1018F000F907C0F012161306E407F50798F0621B0B
:10190000730B840B950B39F40A2661F0232B242BDF
:10191000252B21F408950A2609F4A140A6958FEFFE
:10192000811D811D089597F99F6780E870E060E050
:1019300008959FEF80EC089500240A941616170668
:1019400018060906089500240A94121613061406B0
:1019500005060895092E0394000C11F4882352F013
:10196000BB0F40F4BF2B11F460FF04C06F5F7F4FCB
:101970008F4F9F4F089557FD9058440F551F59F0B2
:101980005F3F71F04795880F97FB991F61F09F3F6C
:1019900079F087950895121613061406551FF2CF95
:1019A0004695F1DF08C0161617061806991FF1CFE5
:1019B00086957105610508940895E894BB2766270C
:1019C0007727CB0197F908950E946F0C08F48FEFE9
:1019D00008950E94F90C29ED3BE54EED5EE30C9471
:1019E000410D16F00C94B30D0C94990C68940C9462
:1019F000930C0E94C30CA8F39923C1F3AEF3DF93B9
:101A0000CF931F930F93FF92C92FDD2788232AF0CE
:101A10002197660F771F881FDAF720E030E040E853
:101A20005FEB9FE3883920F0803E38F021968F7776
:101A30000E94190BE8E6F0E004C00E94190BE5E9EA
:101A4000F0E00E94C10D8B01BE01EC01FB2E6F572F
:101A500071097595771F880B990B0E94340C28E14A
:101A600032E741E35FE30E94540DAF2D9801AE01D0
:101A7000FF900F911F91CF91DF910E94300B0C943A
:101A8000AA0C0E94540D0C94AA0C0E949C0C38F0D5
:101A90000E94A30C20F0952311F00C94930C0C944D
:101AA000990C11240C94DE0C0E94BB0C70F3959FD2
:101AB000C1F3950F50E0551F629FF001729FBB2745
:101AC000F00DB11D639FAA27F00DB11DAA1F649FE1
:101AD0006627B00DA11D661F829F2227B00DA11D94
:101AE000621F739FB00DA11D621F839FA00D611D1A
:101AF000221F749F3327A00D611D231F849F600D3B
:101B0000211D822F762F6A2F11249F5750409AF063
:101B1000F1F088234AF0EE0FFF1FBB1F661F771FEF
:101B2000881F91505040A9F79E3F510580F00C94BA
:101B3000930C0C94DE0C5F3FE4F3983ED4F386954F
:101B400077956795B795F795E7959F5FC1F7FE2B5A
:101B5000880F911D9695879597F908950E946F0CAF
:101B6000880B990B08959F3F31F0915020F4879591
:101B700077956795B795880F911D9695879597F9F5
:101B80000895DF93CF931F930F93FF92EF92DF920D
:101B90007B018C01689406C0DA2EEF010E94540D7F
:101BA000FE01E894A5912591359145915591A6F3B3
:101BB000EF010E94300BFE019701A801DA9469F74A
:101BC000DF90EF90FF900F911F91CF91DF910895DB
:101BD000A1E21A2EAA1BBB1BFD010DC0AA1FBB1F31
:101BE000EE1FFF1FA217B307E407F50720F0A21BA3
:101BF000B30BE40BF50B661F771F881F991F1A9410
:101C000069F760957095809590959B01AC01BD0139
:101C1000CF010895EE0FFF1F0590F491E02D099478
:041C2000F894FFCF66
:101C2400000000001B027B01A8016802D901B70172
:101C3400CB0100000000BC057B01770476046E61D3
:101C44006E00696E66006F7666000D0A00444854A3
:101C54003131207465737421004661696C656420B8
:101C6400746F20726561642066726F6D20444854FD
:101C74002073656E736F72210048756D69646974B1
:101C8400792000250054656D706572617475726504
:101C940020002A430048756D69646974793A20000C
:101CA40025090054656D70657261747572653A201A
:101CB40000202A432000416E616C6F6720766F6CB0
:101CC40074616765203A0056202C006442004C453C
:061CD40044204F4E000009
:107E0000112484B714BE81FFF0D085E080938100F7
:107E100082E08093C00088E18093C10086E0809377
:107E2000C20080E18093C4008EE0C9D0259A86E02C
:107E300020E33CEF91E0309385002093840096BBD3
:107E4000B09BFECF1D9AA8958150A9F7CC24DD24C4
:107E500088248394B5E0AB2EA1E19A2EF3E0BF2EE7
:107E6000A2D0813461F49FD0082FAFD0023811F036
:107E7000013811F484E001C083E08DD089C08234E0
:107E800011F484E103C0853419F485E0A6D080C0E4
:107E9000853579F488D0E82EFF2485D0082F10E0AE
:107EA000102F00270E291F29000F111F8ED06801E7
:107EB0006FC0863521F484E090D080E0DECF843638
:107EC00009F040C070D06FD0082F6DD080E0C81688
:107ED00080E7D80618F4F601B7BEE895C0E0D1E017
:107EE00062D089930C17E1F7F0E0CF16F0E7DF06D8
:107EF00018F0F601B7BEE89568D007B600FCFDCFD4
:107F0000A601A0E0B1E02C9130E011968C91119780
:107F100090E0982F8827822B932B1296FA010C0160
:107F200087BEE89511244E5F5F4FF1E0A038BF0790
:107F300051F7F601A7BEE89507B600FCFDCF97BE46
:107F4000E89526C08437B1F42ED02DD0F82E2BD052
:107F50003CD0F601EF2C8F010F5F1F4F84911BD097
:107F6000EA94F801C1F70894C11CD11CFA94CF0C13
:107F7000D11C0EC0853739F428D08EE10CD085E9AC
:107F80000AD08FE07ACF813511F488E018D01DD067
:107F900080E101D065CF982F8091C00085FFFCCF94
:107FA0009093C60008958091C00087FFFCCF809118
:107FB000C00084FD01C0A8958091C6000895E0E648
:107FC000F0E098E1908380830895EDDF803219F02E
:107FD00088E0F5DFFFCF84E1DECF1F93182FE3DFCA
:107FE0001150E9F7F2DF1F91089580E0E8DFEE27F6
:047FF000FF270994CA
:027FFE00040479
:0400000300007E007B
:00000001FF
