:100000000C948F000C94B7000C94B7000C942F083C
:100010000C94B7000C94B7000C94B7000C94B70084
:100020000C94B7000C94B7000C94B7000C94200803
:100030000C94B7000C94B7000C94B7000C94B70064
:100040000C94D6070C94B7000C94A4070C947E076C
:100050000C94B7000C94B7000C94B7000C94B70044
:100060000C94B7000C94B70008000000BE9224491D
:10007000123EABAAAA2ABECDCCCC4C3E00000080DA
:10008000BEABAAAAAA3E00000000BF000000803F4D
:100090000000000000084178D3BB4387D1133D190D
:1000A0000E3CC3BD4282AD2B3E68EC8276BED98F3A
:1000B000E1A93E4C80EFFFBE01C4FF7F3F0000007E
:1000C000000000000000240027002A0000000000BB
:1000D000250028002B00000000080002010000039A
:1000E00004070000000000000000000000002300E2
:1000F0002600290004040404040404040202020289
:1001000002020303030303030102040810204080DA
:10011000010204081020010204081020E50811243F
:100120001FBECFEFD8E0DEBFCDBF11E0A0E0B1E051
:10013000E4E8FCE102C005900D92AC3CB107D9F7B0
:1001400022E0ACECB1E001C01D92AF39B207E1F79B
:1001500010E0CFE8D0E004C02197FE010E943A0EE3
:10016000CE38D107C9F70E9450090C94400E0C9468
:100170000000CF92DF92EF92FF92CF93DF93C82FD0
:1001800080917A028C3009F45EC038F48B30F1F043
:1001900060E070E080EC9FE74FC085518230C0F78F
:1001A000D09176026D2F70E0762F662766277F77D5
:1001B00080917702682B90E080E00E94620C2DEC29
:1001C0003CEC4CEC5DE30E94710D59C060917602ED
:1001D00070E090E080E00E94620C6B017C01D091A5
:1001E0007702D7FF0AC0AC019B0160E070E080E8B5
:1001F0009FEB0E94480B6B017C01DF706D2F70E05C
:1002000090E080E00E94640C2DEC3CEC4CEC5DE353
:100210000E94710DA70196010E94490BCC2361F049
:1002200026E636E646EE5FE30E94710D20E030E000
:1002300040E052E40E94490BDF91CF91FF90EF9094
:10024000DF90CF900895D09176026D2F70E090E00E
:1002500080E00E94620C6B017C01609177026F70FC
:1002600070E090E080E00E94640C2DEC3CEC4CECE3
:100270005DE30E94710DA70196010E94490BD7FF13
:10028000CDCF9058CBCFCF92DF92EF92FF92CF930A
:10029000DF93B0917B02A0E08111AB2F80917C02B3
:1002A00090E0880F991FAC0146515F4FC0908102CA
:1002B000D0908202E0908302F090840230E020E04F
:1002C000FA01C591D491E881B90190E080E0EB2377
:1002D000EA130AC02F5F3F4F6C157D058E059F0501
:1002E00078F36FEF7FEFCB01DF91CF91FF90EF902D
:1002F000DF90CF900895AF92BF92CF92DF92EF92AE
:10030000FF920F931F93CF93DF936C017B018B01BF
:10031000040F151FEB015E01AE18BF08C017D1070F
:1003200059F06991D601ED91FC910190F081E02D99
:10033000C6010995892B79F7C501DF91CF911F91EE
:100340000F91FF90EF90DF90CF90BF90AF90089506
:10035000FC01538D448D252F30E0842F90E0821BCB
:10036000930B541710F0CF96089501970895FC0150
:10037000918D828D981761F0A28DAE0FBF2FB11DA8
:100380005D968C91928D9F5F9F73928F90E0089500
:100390008FEF9FEF0895FC01918D828D981731F0BA
:1003A000828DE80FF11D858D90E008958FEF9FEF0E
:1003B0000895FC01918D228D892F90E0805C9F4FE4
:1003C000821B91098F739927089587ED91E00E9410
:1003D000D90121E0892B09F420E0822F089580E0E3
:1003E00090E0892B29F00E94E50181110C94000016
:1003F0000895FC01A48DA80FB92FB11DA35ABF4FBA
:100400002C91848D90E001968F739927848FA68913
:10041000B7892C93A089B1898C91837080648C9367
:10042000938D848D981306C00288F389E02D808116
:100430008F7D80830895EF92FF920F931F93CF9348
:10044000DF93EC0181E0888F9B8D8C8D98131AC00F
:10045000E889F989808185FF15C09FB7F894EE89F6
:10046000FF896083E889F989808183708064808353
:100470009FBF81E090E0DF91CF911F910F91FF909E
:10048000EF900895F62E0B8D10E00F5F1F4F0F7346
:100490001127E02E8C8D8E110CC00FB607FCFACF01
:1004A000E889F989808185FFF5CFCE010E94F901A5
:1004B000F1CFEB8DEC0FFD2FF11DE35AFF4FF082D2
:1004C0009FB7F8940B8FEA89FB8980818062CFCF38
:1004D000CF93DF93EC01888D8823B9F0AA89BB897B
:1004E000E889F9898C9185FD03C0808186FD0DC066
:1004F0000FB607FCF7CF8C9185FFF2CF808185FF87
:10050000EDCFCE010E94F901E9CFDF91CF9108959F
:1005100090E0FC01EA52FF4F2491FC01E85FFE4F9E
:100520003491FC01EC50FF4FE491EE23C9F02223FB
:1005300039F0233001F1A8F4213019F1223029F1EA
:10054000F0E0EE0FFF1FE453FF4FA591B4918FB77A
:10055000F894EC91611126C030953E233C938FBFF7
:1005600008952730A9F02830C9F0243049F7809148
:1005700080008F7D03C0809180008F778093800002
:10058000DFCF84B58F7784BDDBCF84B58F7DFBCF84
:100590008091B0008F778093B000D2CF8091B0006F
:1005A0008F7DF9CF3E2BDACFCF93DF9390E0FC0124
:1005B000E85FFE4F24918C509F4FFC01849188236B
:1005C000C9F090E0880F991FFC01EE53FF4FA591F1
:1005D000B491FC01E453FF4FC591D49161110DC05A
:1005E0009FB7F8948C91209582238C93888128233F
:1005F00028839FBFDF91CF910895623051F49FB758
:10060000F8943C91822F809583238C93E8812E2B44
:10061000EFCF8FB7F894EC912E2B2C938FBFEACFAE
:100620003FB7F8948091CD019091CE01A091CF0178
:10063000B091D00126B5A89B05C02F3F19F00196B7
:10064000A11DB11D3FBFBA2FA92F982F8827BC012C
:10065000CD01620F711D811D911D42E0660F771F54
:10066000881F991F4A95D1F708958F929F92AF9254
:10067000BF92CF92DF92EF92FF924B015C010E94FA
:1006800010036B017C010E9410036C197D098E0917
:100690009F09683E734081059105A8F321E0821A05
:1006A0009108A108B10888EEC80E83E0D81EE11CAD
:1006B000F11C81149104A104B10429F7FF90EF907B
:1006C000DF90CF90BF90AF909F908F900895CF9282
:1006D000DF92EF92FF920F931F93CF93DF93CDB7EB
:1006E000DEB7C054D1400FB6F894DEBF0FBECDBF09
:1006F0002FB7F8948091D3019091D401A091D501A6
:10070000B091D6012FBF40917D0250917E02609141
:100710007F02709180028C019D01041B150B260B3A
:10072000370BB901A801403D57406105710590F4B0
:1007300080918502C05CDE4F0FB6F894DEBF0FBE1D
:10074000CDBFDF91CF911F910F91FF90EF90DF9080
:10075000CF90089580937D0290937E02A0937F02B4
:10076000B093800210927802109277021092760273
:10077000109275021092740262E0809179020E94D8
:10078000D40261E070E080E090E00E94350361E017
:10079000809179020E94D40260E0809179020E94E7
:1007A000880280917A028551823020F58BE291E1B6
:1007B0000197F1F762E0809179020E94D402809162
:1007C000860290E08230910538F0880F991F880FDB
:1007D000991F05970197F1F7F89480E00E94430173
:1007E0006F3F7F4F8F4F9F4F61F410928502789437
:1007F00080E0A0CF64E170E080E090E00E943503EB
:10080000D9CF81E00E9443016F3F7F4F8F4F9F4FB1
:1008100061F38E010F5F1F4F6E018FEBC81A8EEFD1
:10082000D80A780180E00E944301F7016083718358
:100830008283938381E00E944301F701648375837F
:1008400086839783F8E0EF0EF11CEC14FD0451F75A
:10085000789430E020E0F801C080D180E280F3801D
:100860004481558166817781FFEFCF16DF06EF0661
:10087000FF0631F04F3F8FEF58076807780719F4EC
:1008800010928502B5CFF90183E0F595E7958A9539
:10089000E1F7EC58FD4F8081880FC416D506E606B7
:1008A000F70610F180832F5F3F4F085F1F4F2832FC
:1008B000310589F640917802209174028091750289
:1008C000280F3327331F80917602280F311D809126
:1008D0007702820F932F911D99274817190681F6E9
:1008E00081E08093850226CF8160DCCF089590E07F
:1008F00080E008950F931F93CF93DF93C7E0D0E07C
:10090000082F10E0B8010C2E02C0759567950A9467
:10091000E2F78AE00E94880261E080E10E9488029A
:1009200060E080E10E948802219760F7DF91CF911B
:100930001F910F910895CF93DF93EC0160E08E81BA
:100940000E94880261E08E810E94880260E08E81B0
:100950000E9488028BE891E00197F1F7DF91CF9137
:100960000895CF92DF92EF92FF920F931F93CF9350
:10097000DF936C017C0187E0E80EF11CD0E0C0E061
:10098000062F10E0B8010C2E02C0759567950A94E9
:10099000E2F76170F70181917F010E948802219640
:1009A000C430D10579F7C601DF91CF911F910F9126
:1009B000FF90EF90DF90CF900C949B04CF92DF924A
:1009C000EF92FF920F931F93CF93DF93EC01F62EDC
:1009D000642F8C810E9488028D818F3F19F060E026
:1009E0000E9488020F2D10E08F8584FF25C06E01C4
:1009F00087E0C80ED11CF12CE12CB8010E2C02C0EE
:100A0000759567950A94E2F76170F60181916F011F
:100A10000E948802FFEFEF1AFF0A88E0E816F1044F
:100A200061F7CE01DF91CF911F910F91FF90EF9071
:100A3000DF90CF900C949B04B80184E07595679586
:100A40008A95E1F7CE010E94B1046F2DCE01DF91AE
:100A5000CF911F910F91FF90EF90DF90CF900C946A
:100A6000B10440E0682F87E892E00C94DE04CF9355
:100A7000DF93823029F490919602986090939602C9
:100A800080939A0210929B0280E480939C0280E102
:100A900080939D0280E580939E0261E080918B02AD
:100AA0000E94D40280918C028F3F19F061E00E9475
:100AB000D40261E080918D020E94D402C7E8D2E0A6
:100AC0009E01275832408091960284FD0BC084E03D
:100AD00090E021962817390744F461E08E810E9446
:100AE000D402EECF88E090E0F4CF8BE39DE0019755
:100AF000F1F760E080918B020E94880260E08091B3
:100B00008D020E94880280918C028F3F19F060E074
:100B10000E9488028091960284FD39C063E087E8D4
:100B200092E00E94B104CBE4D6E4CE010197F1F744
:100B300063E087E892E00E94B1042197F1F763E057
:100B400087E892E00E94B10483E592E00197F1F713
:100B500062E087E892E00E94B10480919602806290
:100B60000E94310584E0809397028CE00E94310559
:100B700081E00E9431058BE39FE10197F1F782E06C
:100B80008093980286E0DF91CF910C9431058062CA
:100B90000E9431058BE496E40197F1F7809196026B
:100BA00080620E94310583E592E00197F1F7809120
:100BB000960280620E943105D0CF90919A028917E7
:100BC00010F08FEF890FE82FF0E0E957FD4F84898F
:100BD00080680C94310541E00E94DE0481E090E0E1
:100BE0000895FB0101900020E9F73197AF01461B02
:100BF000570BDC01ED91FC910280F381E02D09940B
:100C00008F929F92AF92BF92EF92FF920F931F939A
:100C1000CF93DF93CDB7DEB7A1970FB6F894DEBFC1
:100C20000FBECDBF7C01FA01CB0119A2223008F41E
:100C30002AE08E010F5D1F4F822E912CB12CA12C2A
:100C4000BF01A50194010E94180EF901CA016A3082
:100C50000CF5605DD8016E938D01232B242B252B81
:100C600079F790E080E0109721F0BD01C7010E9464
:100C7000F105A1960FB6F894DEBF0FBECDBFDF9190
:100C8000CF911F910F91FF90EF90BF90AF909F90E9
:100C90008F900895695CDECFCF92DF92EF92FF9242
:100CA0000F931F93CF93DF936B01770FEE08FF082D
:100CB000F7FE1FC0EC01E881F9810190F081E02D81
:100CC0006DE209958C0144275527BA014C195D093D
:100CD0006E097F092AE0CE010E940006800F911F55
:100CE000DF91CF911F910F91FF90EF90DF90CF9008
:100CF00008952AE0B701A601DF91CF911F910F91CE
:100D0000FF90EF90DF90CF900C9400064F925F928F
:100D10006F927F928F929F92AF92BF92CF92DF920B
:100D2000EF92FF920F931F93CF936B017C01742E70
:100D3000AC019B010E94DE0D6EE171E0811126C0C5
:100D400046015701E894B7F82FEF3FEF4FE75FE711
:100D5000C501B4010E94DE0D81110CC02FEF3FEFE1
:100D60004FE75FE7C501B4010E94B50B62E271E095
:100D7000181664F02FEF3FEF4FE75FE4C701B601AD
:100D80000E94140D1816ACF466E271E087ED91E054
:100D9000CF911F910F91FF90EF90DF90CF90BF9078
:100DA000AF909F908F907F906F905F904F900C943A
:100DB000F1052FEF3FEF4FE75FECC701B6010E944F
:100DC000B50B87FDE1CF20E030E0A901C701B601F6
:100DD0000E94B50B10E000E087FF0AC06DE287EDCE
:100DE00091E00E941B028C01F7FAF094F7F8F0945E
:100DF000C0E060E070E080E09FE37C1641F020E01E
:100E000030E040E251E40E94BA0BCF5FF6CFA70179
:100E100096010E94490B2B013C010E94330C4B01AF
:100E20005C012AE0BC01A40187ED91E00E9400066C
:100E30007C01E00EF11ECC23D1F1C501B4010E946A
:100E4000620C9B01AC01C301B2010E94480B4B0133
:100E50005C016EE287ED91E00E941B02E80EF91E34
:100E6000C15028F120E030E040E251E4C501B40176
:100E70000E94710D2B013C010E94330C4B01B12CDF
:100E8000A12C2AE0B501A40187ED91E00E940006A3
:100E9000E80EF91EC501B4010E94620C9B01AC0171
:100EA000C301B2010E94480B4B015C01D9CFC701BD
:100EB000CF911F910F91FF90EF90DF90CF90BF9057
:100EC000AF909F908F907F906F905F904F9008951C
:100ED0000F931F93CF93DF93EC010E94F1058C01D8
:100EE0006AE271E0CE010E94F105800F911FDF914F
:100EF000CF911F910F9108950C94F1051F920F92BD
:100F00000FB60F9211242F933F934F935F936F93DC
:100F10007F938F939F93AF93BF93EF93FF9387ED4F
:100F200091E00E94F901FF91EF91BF91AF919F91E4
:100F30008F917F916F915F914F913F912F910F9082
:100F40000FBE0F901F9018951F920F920FB60F9221
:100F500011242F938F939F93EF93FF93E091E701D9
:100F6000F091E8018081E091ED01F091EE0182FDC8
:100F70001BC090818091F0018F5F8F732091F101F0
:100F8000821741F0E091F001F0E0E952FE4F958FB9
:100F90008093F001FF91EF919F918F912F910F908E
:100FA0000FBE0F901F9018958081F4CF1F920F9263
:100FB0000FB60F9211242F933F938F939F93AF936C
:100FC000BF938091D3019091D401A091D501B091AC
:100FD000D6013091CC0123E0230F2D3758F501962F
:100FE000A11DB11D2093CC018093D3019093D40116
:100FF000A093D501B093D6018091CD019091CE01FF
:10100000A091CF01B091D0010196A11DB11D809397
:10101000CD019093CE01A093CF01B093D001BF91A9
:10102000AF919F918F913F912F910F900FBE0F9095
:101030001F90189526E8230F0296A11DB11DD2CF4F
:101040001F920F920FB60F9211248F9381E080931D
:10105000D2018F910F900FBE0F901F9018951F9285
:101060000F920FB60F9211248F929F92AF92BF9260
:10107000CF92DF92EF92FF922F933F934F935F9324
:101080006F937F938F939F93AF93BF93EF93FF9350
:10109000189B82C081E480937C0080917A008064F8
:1010A00080937A0080917A0086FDFCCF8091780051
:1010B00060917900762F682F072E000C880B990B12
:1010C0000E94640C2AE038E240EA5BE30E94710D62
:1010D0004B015C0120E030E040EA50E40E94BA0B92
:1010E0000E94190D20E030E040EA51E40E94710DA9
:1010F0006B017C0120E030E0A9010E94140D18165C
:1011000024F0F7FAF094F7F8F0946DEA71E087EDC7
:1011100091E00E947C0744E0C501B4010E9486066C
:101120006EEB71E087ED91E00E947C0742E0C70121
:10113000B6010E94860662EC71E087ED91E00E94A4
:10114000680723E333E343EC50E4C701B6010E9490
:10115000140D87FD21C02AE939E949EC50E4C701A3
:10116000B6010E94B50B1816BCF065EC71E087ED76
:1011700091E00E946807F090D10160E085E00E9454
:1011800088028F2D0E947A0461E085E00E94880227
:1011900081E0F826F092D101FF91EF91BF91AF91DC
:1011A0009F918F917F916F915F914F913F912F917F
:1011B000FF90EF90DF90CF90BF90AF909F908F9077
:1011C0000F900FBE0F901F901895E7EDF1E013827E
:1011D000128288EE93E0A0E0B0E084839583A6833A
:1011E000B78384E091E09183808385EC90E09587DC
:1011F000848784EC90E09787868780EC90E0918BE1
:10120000808B81EC90E0938B828B82EC90E0958BCD
:10121000848B86EC90E0978B868B118E128E138ECA
:10122000148EE7E8F2E01382128286E191E0918366
:10123000808383E184838FEF858382E1868389E0E5
:10124000878387E0808786E0818784E082871386B2
:10125000148615861686178681E00E943705A4E756
:10126000B2E08EE015968C9315978BE016968C93D2
:101270001697E6E1F1E0E4911796EC931797E2E018
:10128000F1E0E4911896EC93189740E85EE360E093
:1012900070E01D964D935D936D937C9350970895E8
:1012A000789484B5826084BD84B5816084BD85B541
:1012B000826085BD85B5816085BD80916E0081604D
:1012C00080936E00109281008091810082608093F3
:1012D00081008091810081608093810080918000F5
:1012E0008160809380008091B10084608093B10020
:1012F0008091B00081608093B00080917A0084601A
:1013000080937A0080917A00826080937A00809145
:101310007A00816080937A0080917A00806880935F
:101320007A001092C100F89410928000109281000F
:10133000109285001092840088E09DE390938900CC
:1013400080938800809181008860809381008091E3
:10135000810085608093810080916F00826080931E
:101360006F00789480916B00816080936B00D89AB5
:1013700080916800816080936800E091E701F091BE
:10138000E80182E08083E091E301F091E4011082C2
:10139000E091E501F091E6018FEC80831092EF017E
:1013A000E091EB01F091EC0186E08083E091E901AE
:1013B000F091EA01808180618083E091E901F09100
:1013C000EA01808188608083E091E901F091EA017F
:1013D000808180688083E091E901F091EA01808159
:1013E0008F7D80836DE271E087ED91E00E94680758
:1013F00082E00E94370560E08FE00E94D40260E046
:1014000088E00E94D40261E08AE00E94D40261E098
:1014100085E00E94D40261E080E10E94D40262E093
:10142000809179020E94D4022FB7F8948091D30161
:101430009091D401A091D501B091D6012FBF805DCC
:101440009740A109B10980937D0290937E02A093F9
:101450007F02B093800287E380938602C0E0D0E0F1
:101460008091D201882309F472C00E946703882307
:1014700051F080917A028B3030F08D3048F08551F8
:10148000823008F495C060E070E080EC9FE71CC0FB
:101490006091750270E090E080E00E94640C2DEC99
:1014A0003CEC4CEC5DE30E94710D6B017C016091A2
:1014B000740270E090E080E00E94640C9B01AC013B
:1014C000C701B6010E94490B0E942C0C4B010E94DF
:1014D0006703882309F47EC080E00E94B9000E945F
:1014E0002C0C6B010E946703882309F478C081E00B
:1014F0000E94B9002B013C01B401092C000C880B9F
:10150000990B0E94640C9B01AC010E94DE0D8111BD
:1015100016C0B6010D2C000C880B990B0E94640CB0
:101520009B01AC010E94DE0D811109C0A301920153
:10153000C301B2010E94DE0D882309F457C069E39C
:1015400071E087ED91E00E9468071092D2018091CE
:10155000D101882309F491C080E00E94DD0566E98D
:1015600071E087E892E00E947C0711E060E085E08E
:101570000E948802812F0E947A0461E085E00E9427
:1015800088028091D10191E089278093D10164E69E
:1015900070E080E090E00E943503209709F460CF6E
:1015A0000E94E501882309F45BCF0E94000058CF18
:1015B000609174027091750276276727762790E014
:1015C00080E00E94620C2DEC3CEC4CEC5DE30E9450
:1015D000710D7ACF60E070E080EC9FE780CF412C06
:1015E000512C80EC682E8FE7782E86CF80E00E9409
:1015F000DD0569E571E087E892E00E947C07B401AF
:1016000087E892E00E944C0663E671E087E892E08A
:101610000E947C0781E00E94DD0565E671E087E8B5
:1016200092E00E947C07B60187E892E00E944C0697
:1016300062E771E087E892E00E94680765E771E081
:1016400087ED91E00E947C07B40187ED91E00E9454
:101650004C0660E871E087ED91E00E947C0763E84A
:1016600071E087ED91E00E947C07B60187ED91E083
:101670000E944C0661E971E064CF80E00E94DD05C4
:1016800061EA71E087E892E00E947C0710E06ECF8B
:101690005058BB27AA270E94600B0C94DA0C0E94BA
:1016A000CC0C38F00E94D30C20F039F49F3F19F491
:1016B00026F40C94C90C0EF4E095E7FB0C94C30CD3
:1016C000E92F0E94EB0C58F3BA17620773078407DF
:1016D000950720F079F4A6F50C940D0D0EF4E09525
:1016E0000B2EBA2FA02D0B01B90190010C01CA01DC
:1016F000A0011124FF27591B99F0593F50F4503E87
:1017000068F11A16F040A22F232F342F4427585F78
:10171000F3CF469537952795A795F0405395C9F790
:101720007EF41F16BA0B620B730B840BBAF0915048
:10173000A1F0FF0FBB1F661F771F881FC2F70EC0E7
:10174000BA0F621F731F841F48F4879577956795BA
:10175000B795F7959E3F08F0B0CF9395880F08F0A6
:101760009927EE0F9795879508950E949F0C08F48E
:1017700081E008950E94CE0B0C94DA0C0E94D30CE9
:1017800058F00E94CC0C40F029F45F3F29F00C94F3
:10179000C30C51110C940E0D0C94C90C0E94EB0C4F
:1017A00068F39923B1F3552391F3951B550BBB2790
:1017B000AA2762177307840738F09F5F5F4F220FD5
:1017C000331F441FAA1FA9F335D00E2E3AF0E0E8CC
:1017D00032D091505040E695001CCAF72BD0FE2F16
:1017E00029D0660F771F881FBB1F261737074807AA
:1017F000AB07B0E809F0BB0B802DBF01FF27935862
:101800005F4F3AF09E3F510578F00C94C30C0C9456
:101810000E0D5F3FE4F3983ED4F386957795679578
:10182000B795F7959F5FC9F7880F911D9695879596
:1018300097F90895E1E0660F771F881FBB1F6217B5
:1018400073078407BA0720F0621B730B840BBA0B73
:10185000EE1F88F7E09508950E94330C6894B1114B
:101860000C940E0D08950E94F30C88F09F5798F089
:10187000B92F9927B751B0F0E1F0660F771F881F95
:10188000991F1AF0BA95C9F714C0B13091F00E94AF
:101890000D0DB1E008950C940D0D672F782F88275A
:1018A000B85F39F0B93FCCF3869577956795B395D6
:1018B000D9F73EF490958095709561957F4F8F4F45
:1018C0009F4F0895E89409C097FB3EF4909580954A
:1018D000709561957F4F8F4F9F4F9923A9F0F92FF6
:1018E00096E9BB279395F695879577956795B79574
:1018F000F111F8CFFAF4BB0F11F460FF1BC06F5F5A
:101900007F4F8F4F9F4F16C0882311F096E911C06B
:10191000772321F09EE8872F762F05C0662371F08C
:1019200096E8862F70E060E02AF09A95660F771FA0
:10193000881FDAF7880F9695879597F90895990F7C
:101940000008550FAA0BE0E8FEEF16161706E80789
:10195000F907C0F012161306E407F50798F0621BAA
:10196000730B840B950B39F40A2661F0232B242B7F
:10197000252B21F408950A2609F4A140A6958FEF9E
:10198000811D811D089597F99F6780E870E060E0F0
:1019900008959FEF80EC089500240A941616170608
:1019A00018060906089500240A9412161306140650
:1019B00005060895092E0394000C11F4882352F0B3
:1019C000BB0F40F4BF2B11F460FF04C06F5F7F4F6B
:1019D0008F4F9F4F089557FD9058440F551F59F052
:1019E0005F3F71F04795880F97FB991F61F09F3F0C
:1019F00079F087950895121613061406551FF2CF35
:101A00004695F1DF08C0161617061806991FF1CF84
:101A100086957105610508940895E894BB276627AB
:101A20007727CB0197F908950E949F0C08F48FEF58
:101A300008950E94290D29ED3BE54EED5EE30C94DF
:101A4000710D16F00C94E30D0C94C90C68940C9471
:101A5000C30C0E94F30CA8F39923C1F3AEF3DF93F8
:101A6000CF931F930F93FF92C92FDD2788232AF06E
:101A70002197660F771F881FDAF720E030E040E8F3
:101A80005FEB9FE3883920F0803E38F021968F7716
:101A90000E94490BE8E6F0E004C00E94490BE5E92A
:101AA000F0E00E94F10D8B01BE01EC01FB2E6F579F
:101AB00071097595771F880B990B0E94640C28E1BA
:101AC00032E741E35FE30E94840DAF2D9801AE0140
:101AD000FF900F911F91CF91DF910E94600B0C94AA
:101AE000DA0C0E94840D0C94DA0C0E94CC0C38F0B5
:101AF0000E94D30C20F0952311F00C94C30C0C948D
:101B0000C90C11240C940E0D0E94EB0C70F3959FE0
:101B1000C1F3950F50E0551F629FF001729FBB27E4
:101B2000F00DB11D639FAA27F00DB11DAA1F649F80
:101B30006627B00DA11D661F829F2227B00DA11D33
:101B4000621F739FB00DA11D621F839FA00D611DB9
:101B5000221F749F3327A00D611D231F849F600DDA
:101B6000211D822F762F6A2F11249F5750409AF003
:101B7000F1F088234AF0EE0FFF1FBB1F661F771F8F
:101B8000881F91505040A9F79E3F510580F00C945A
:101B9000C30C0C940E0D5F3FE4F3983ED4F386958E
:101BA00077956795B795F795E7959F5FC1F7FE2BFA
:101BB000880F911D9695879597F908950E949F0C1F
:101BC000880B990B08959F3F31F0915020F4879531
:101BD00077956795B795880F911D9695879597F995
:101BE0000895DF93CF931F930F93FF92EF92DF92AD
:101BF0007B018C01689406C0DA2EEF010E94840DEF
:101C0000FE01E894A5912591359145915591A6F352
:101C1000EF010E94600BFE019701A801DA9469F7B9
:101C2000DF90EF90FF900F911F91CF91DF9108957A
:101C3000A1E21A2EAA1BBB1BFD010DC0AA1FBB1FD0
:101C4000EE1FFF1FA217B307E407F50720F0A21B42
:101C5000B30BE40BF50B661F771F881F991F1A94AF
:101C600069F760957095809590959B01AC01BD01D9
:101C7000CF010895EE0FFF1F0590F491E02D099418
:041C8000F894FFCF06
:101C8400000000001B027B01A8016802D901B70112
:101C9400CB0100000000EB057B01770476046E6144
:101CA4006E00696E66006F7666000D0A0044485443
:101CB4003131207465737421004661696C65642058
:101CC400746F20726561642066726F6D204448549D
:101CD4002073656E736F72210048756D6964697451
:101CE400792000250054656D7065726174757265A4
:101CF40020002A430048756D69646974793A2000AC
:101D040025090054656D70657261747572653A20B9
:101D140000202A4320007475726E6564206F6E2063
:101D2400007475726E6564206F66662000416E6192
:101D34006C6F6720766F6C74616765203A0056207B
:0C1D44002C006442004C4544204F4E002F
:107E0000112484B714BE81FFF0D085E080938100F7
:107E100082E08093C00088E18093C10086E0809377
:107E2000C20080E18093C4008EE0C9D0259A86E02C
:107E300020E33CEF91E0309385002093840096BBD3
:107E4000B09BFECF1D9AA8958150A9F7CC24DD24C4
:107E500088248394B5E0AB2EA1E19A2EF3E0BF2EE7
:107E6000A2D0813461F49FD0082FAFD0023811F036
:107E7000013811F484E001C083E08DD089C08234E0
:107E800011F484E103C0853419F485E0A6D080C0E4
:107E9000853579F488D0E82EFF2485D0082F10E0AE
:107EA000102F00270E291F29000F111F8ED06801E7
:107EB0006FC0863521F484E090D080E0DECF843638
:107EC00009F040C070D06FD0082F6DD080E0C81688
:107ED00080E7D80618F4F601B7BEE895C0E0D1E017
:107EE00062D089930C17E1F7F0E0CF16F0E7DF06D8
:107EF00018F0F601B7BEE89568D007B600FCFDCFD4
:107F0000A601A0E0B1E02C9130E011968C91119780
:107F100090E0982F8827822B932B1296FA010C0160
:107F200087BEE89511244E5F5F4FF1E0A038BF0790
:107F300051F7F601A7BEE89507B600FCFDCF97BE46
:107F4000E89526C08437B1F42ED02DD0F82E2BD052
:107F50003CD0F601EF2C8F010F5F1F4F84911BD097
:107F6000EA94F801C1F70894C11CD11CFA94CF0C13
:107F7000D11C0EC0853739F428D08EE10CD085E9AC
:107F80000AD08FE07ACF813511F488E018D01DD067
:107F900080E101D065CF982F8091C00085FFFCCF94
:107FA0009093C60008958091C00087FFFCCF809118
:107FB000C00084FD01C0A8958091C6000895E0E648
:107FC000F0E098E1908380830895EDDF803219F02E
:107FD00088E0F5DFFFCF84E1DECF1F93182FE3DFCA
:107FE0001150E9F7F2DF1F91089580E0E8DFEE27F6
:047FF000FF270994CA
:027FFE00040479
:0400000300007E007B
:00000001FF
