:100000000C948F000C94B7000C94B7000C947708F4
:100010000C94B7000C94B7000C94B7000C94B70084
:100020000C94B7000C94B7000C94B7000C94200803
:100030000C94B7000C94B7000C94B7000C94B70064
:100040000C94D6070C94B7000C94A4070C947E076C
:100050000C94B7000C94B7000C94B7000C94B70044
:100060000C94B7000C94B70008000000BE9224491D
:10007000123EABAAAA2ABECDCCCC4C3E00000080DA
:10008000BEABAAAAAA3E00000000BF000000803F4D
:100090000000000000084178D3BB4387D1133D190D
:1000A0000E3CC3BD4282AD2B3E68EC8276BED98F3A
:1000B000E1A93E4C80EFFFBE01C4FF7F3F0000007E
:1000C000000000000000240027002A0000000000BB
:1000D000250028002B00000000080002010000039A
:1000E00004070000000000000000000000002300E2
:1000F0002600290004040404040404040202020289
:1001000002020303030303030102040810204080DA
:100110000102040810200102040810202D091124F6
:100120001FBECFEFD8E0DEBFCDBF11E0A0E0B1E051
:10013000E0EBFCE102C005900D92A03DB107D9F7BC
:1001400022E0A0EDB1E001C01D92A33AB207E1F7B1
:1001500010E0CFE8D0E004C02197FE010E94500ECD
:10016000CE38D107C9F70E9498090C94560E0C940A
:100170000000CF92DF92EF92FF92CF93DF93C82FD0
:1001800080917E028C3009F45EC038F48B30F1F03F
:1001900060E070E080EC9FE74FC085518230C0F78F
:1001A000D0917A026D2F70E0762F662766277F77D1
:1001B00080917B02682B90E080E00E94780C2DEC0F
:1001C0003CEC4CEC5DE30E94870D59C060917A02D3
:1001D00070E090E080E00E94780C6B017C01D0918F
:1001E0007B02D7FF0AC0AC019B0160E070E080E8B1
:1001F0009FEB0E945E0B6B017C01DF706D2F70E046
:1002000090E080E00E947A0C2DEC3CEC4CEC5DE33D
:100210000E94870DA70196010E945F0BCC2361F01D
:1002200026E636E646EE5FE30E94870D20E030E0EA
:1002300040E052E40E945F0BDF91CF91FF90EF907E
:10024000DF90CF900895D0917A026D2F70E090E00A
:1002500080E00E94780C6B017C0160917B026F70E2
:1002600070E090E080E00E947A0C2DEC3CEC4CECCD
:100270005DE30E94870DA70196010E945F0BD7FFE7
:10028000CDCF9058CBCFCF92DF92EF92FF92CF930A
:10029000DF93B0917F02A0E08111AB2F80918002AB
:1002A00090E0880F991FAC0146515F4FC0908502C6
:1002B000D0908602E0908702F090880230E020E043
:1002C000FA01C591D491E881B90190E080E0EB2377
:1002D000EA130AC02F5F3F4F6C157D058E059F0501
:1002E00078F36FEF7FEFCB01DF91CF91FF90EF902D
:1002F000DF90CF900895AF92BF92CF92DF92EF92AE
:10030000FF920F931F93CF93DF936C017B018B01BF
:10031000040F151FEB015E01AE18BF08C017D1070F
:1003200059F06991D601ED91FC910190F081E02D99
:10033000C6010995892B79F7C501DF91CF911F91EE
:100340000F91FF90EF90DF90CF90BF90AF90089506
:10035000FC01538D448D252F30E0842F90E0821BCB
:10036000930B541710F0CF96089501970895FC0150
:10037000918D828D981761F0A28DAE0FBF2FB11DA8
:100380005D968C91928D9F5F9F73928F90E0089500
:100390008FEF9FEF0895FC01918D828D981731F0BA
:1003A000828DE80FF11D858D90E008958FEF9FEF0E
:1003B0000895FC01918D228D892F90E0805C9F4FE4
:1003C000821B91098F73992708958BED91E00E940C
:1003D000D90121E0892B09F420E0822F089580E0E3
:1003E00090E0892B29F00E94E50181110C94000016
:1003F0000895FC01A48DA80FB92FB11DA35ABF4FBA
:100400002C91848D90E001968F739927848FA68913
:10041000B7892C93A089B1898C91837080648C9367
:10042000938D848D981306C00288F389E02D808116
:100430008F7D80830895EF92FF920F931F93CF9348
:10044000DF93EC0181E0888F9B8D8C8D98131AC00F
:10045000E889F989808185FF15C09FB7F894EE89F6
:10046000FF896083E889F989808183708064808353
:100470009FBF81E090E0DF91CF911F910F91FF909E
:10048000EF900895F62E0B8D10E00F5F1F4F0F7346
:100490001127E02E8C8D8E110CC00FB607FCFACF01
:1004A000E889F989808185FFF5CFCE010E94F901A5
:1004B000F1CFEB8DEC0FFD2FF11DE35AFF4FF082D2
:1004C0009FB7F8940B8FEA89FB8980818062CFCF38
:1004D000CF93DF93EC01888D8823B9F0AA89BB897B
:1004E000E889F9898C9185FD03C0808186FD0DC066
:1004F0000FB607FCF7CF8C9185FFF2CF808185FF87
:10050000EDCFCE010E94F901E9CFDF91CF9108959F
:1005100090E0FC01EA52FF4F2491FC01E85FFE4F9E
:100520003491FC01EC50FF4FE491EE23C9F02223FB
:1005300039F0233001F1A8F4213019F1223029F1EA
:10054000F0E0EE0FFF1FE453FF4FA591B4918FB77A
:10055000F894EC91611126C030953E233C938FBFF7
:1005600008952730A9F02830C9F0243049F7809148
:1005700080008F7D03C0809180008F778093800002
:10058000DFCF84B58F7784BDDBCF84B58F7DFBCF84
:100590008091B0008F778093B000D2CF8091B0006F
:1005A0008F7DF9CF3E2BDACFCF93DF9390E0FC0124
:1005B000E85FFE4F24918C509F4FFC01849188236B
:1005C000C9F090E0880F991FFC01EE53FF4FA591F1
:1005D000B491FC01E453FF4FC591D49161110DC05A
:1005E0009FB7F8948C91209582238C93888128233F
:1005F00028839FBFDF91CF910895623051F49FB758
:10060000F8943C91822F809583238C93E8812E2B44
:10061000EFCF8FB7F894EC912E2B2C938FBFEACFAE
:100620003FB7F8948091D2019091D301A091D40169
:10063000B091D50126B5A89B05C02F3F19F00196B2
:10064000A11DB11D3FBFBA2FA92F982F8827BC012C
:10065000CD01620F711D811D911D42E0660F771F54
:10066000881F991F4A95D1F708958F929F92AF9254
:10067000BF92CF92DF92EF92FF924B015C010E94FA
:1006800010036B017C010E9410036C197D098E0917
:100690009F09683E734081059105A8F321E0821A05
:1006A0009108A108B10888EEC80E83E0D81EE11CAD
:1006B000F11C81149104A104B10429F7FF90EF907B
:1006C000DF90CF90BF90AF909F908F900895CF9282
:1006D000DF92EF92FF920F931F93CF93DF93CDB7EB
:1006E000DEB7C054D1400FB6F894DEBF0FBECDBF09
:1006F0002FB7F8948091D7019091D801A091D9019A
:10070000B091DA012FBF4091810250918202609135
:100710008302709184028C019D01041B150B260B32
:10072000370BB901A801403D57406105710590F4B0
:1007300080918902C05CDE4F0FB6F894DEBF0FBE19
:10074000CDBFDF91CF911F910F91FF90EF90DF9080
:10075000CF9008958093810290938202A0938302A8
:10076000B093840210927C0210927B0210927A0263
:10077000109279021092780262E080917D020E94CC
:10078000D40261E070E080E090E00E94350361E017
:1007900080917D020E94D40260E080917D020E94DF
:1007A000880280917E028551823020F58BE291E1B2
:1007B0000197F1F762E080917D020E94D40280915E
:1007C0008A0290E08230910538F0880F991F880FD7
:1007D000991F05970197F1F7F89480E00E94430173
:1007E0006F3F7F4F8F4F9F4F61F410928902789433
:1007F00080E0A0CF64E170E080E090E00E943503EB
:10080000D9CF81E00E9443016F3F7F4F8F4F9F4FB1
:1008100061F38E010F5F1F4F6E018FEBC81A8EEFD1
:10082000D80A780180E00E944301F7016083718358
:100830008283938381E00E944301F701648375837F
:1008400086839783F8E0EF0EF11CEC14FD0451F75A
:10085000789430E020E0F801C080D180E280F3801D
:100860004481558166817781FFEFCF16DF06EF0661
:10087000FF0631F04F3F8FEF58076807780719F4EC
:1008800010928902B5CFF90183E0F595E7958A9535
:10089000E1F7E858FD4F8081880FC416D506E606BB
:1008A000F70610F180832F5F3F4F085F1F4F2832FC
:1008B000310589F640917C0220917802809179027D
:1008C000280F3327331F80917A02280F311D809122
:1008D0007B02820F932F911D99274817190681F6E5
:1008E00081E08093890226CF8160DCCF089590E07B
:1008F00080E008950F931F93CF93DF93C7E0D0E07C
:10090000082F10E0B8010C2E02C0759567950A9467
:10091000E2F78AE00E94880261E080E10E9488029A
:1009200060E080E10E948802219760F7DF91CF911B
:100930001F910F910895CF93DF93EC0160E08E81BA
:100940000E94880261E08E810E94880260E08E81B0
:100950000E9488028BE891E00197F1F7DF91CF9137
:100960000895CF92DF92EF92FF920F931F93CF9350
:10097000DF936C017C0187E0E80EF11CD0E0C0E061
:10098000062F10E0B8010C2E02C0759567950A94E9
:10099000E2F76170F70181917F010E948802219640
:1009A000C430D10579F7C601DF91CF911F910F9126
:1009B000FF90EF90DF90CF900C949B04CF92DF924A
:1009C000EF92FF920F931F93CF93DF93EC01F62EDC
:1009D000642F8C810E9488028D818F3F19F060E026
:1009E0000E9488020F2D10E08F8584FF25C06E01C4
:1009F00087E0C80ED11CF12CE12CB8010E2C02C0EE
:100A0000759567950A94E2F76170F60181916F011F
:100A10000E948802FFEFEF1AFF0A88E0E816F1044F
:100A200061F7CE01DF91CF911F910F91FF90EF9071
:100A3000DF90CF900C949B04B80184E07595679586
:100A40008A95E1F7CE010E94B1046F2DCE01DF91AE
:100A5000CF911F910F91FF90EF90DF90CF900C946A
:100A6000B10440E0682F8BE892E00C94DE04CF9351
:100A7000DF93823029F490919A02986090939A02C1
:100A800080939E0210929F0280E48093A00280E1F6
:100A90008093A10280E58093A20261E080918F02A1
:100AA0000E94D402809190028F3F19F061E00E9471
:100AB000D40261E0809191020E94D402CBE8D2E09E
:100AC0009E012B58324080919A0284FD0BC084E035
:100AD00090E021962817390744F461E08E810E9446
:100AE000D402EECF88E090E0F4CF8BE39DE0019755
:100AF000F1F760E080918F020E94880260E08091AF
:100B000091020E948802809190028F3F19F060E06C
:100B10000E94880280919A0284FD39C063E08BE8CC
:100B200092E00E94B104CBE4D6E4CE010197F1F744
:100B300063E08BE892E00E94B1042197F1F763E053
:100B40008BE892E00E94B10483E592E00197F1F70F
:100B500062E08BE892E00E94B10480919A02806288
:100B60000E94310584E080939B028CE00E94310555
:100B700081E00E9431058BE39FE10197F1F782E06C
:100B800080939C0286E0DF91CF910C9431058062C6
:100B90000E9431058BE496E40197F1F780919A0267
:100BA00080620E94310583E592E00197F1F7809120
:100BB0009A0280620E943105D0CF90919E028917DF
:100BC00010F08FEF890FE82FF0E0E557FD4F848993
:100BD00080680C94310541E00E94DE0481E090E0E1
:100BE0000895FB0101900020E9F73197AF01461B02
:100BF000570BDC01ED91FC910280F381E02D09940B
:100C00008F929F92AF92BF92EF92FF920F931F939A
:100C1000CF93DF93CDB7DEB7A1970FB6F894DEBFC1
:100C20000FBECDBF7C01FA01CB0119A2223008F41E
:100C30002AE08E010F5D1F4F822E912CB12CA12C2A
:100C4000BF01A50194010E942E0EF901CA016A306C
:100C50000CF5605DD8016E938D01232B242B252B81
:100C600079F790E080E0109721F0BD01C7010E9464
:100C7000F105A1960FB6F894DEBF0FBECDBFDF9190
:100C8000CF911F910F91FF90EF90BF90AF909F90E9
:100C90008F900895695CDECFCF92DF92EF92FF9242
:100CA0000F931F93CF93DF936B01770FEE08FF082D
:100CB000F7FE1FC0EC01E881F9810190F081E02D81
:100CC0006DE209958C0144275527BA014C195D093D
:100CD0006E097F092AE0CE010E940006800F911F55
:100CE000DF91CF911F910F91FF90EF90DF90CF9008
:100CF00008952AE0B701A601DF91CF911F910F91CE
:100D0000FF90EF90DF90CF900C9400064F925F928F
:100D10006F927F928F929F92AF92BF92CF92DF920B
:100D2000EF92FF920F931F93CF936B017C01742E70
:100D3000AC019B010E94F40D6EE171E0811126C0AF
:100D400046015701E894B7F82FEF3FEF4FE75FE711
:100D5000C501B4010E94F40D81110CC02FEF3FEFCB
:100D60004FE75FE7C501B4010E94CB0B62E271E07F
:100D7000181664F02FEF3FEF4FE75FE4C701B601AD
:100D80000E942A0D1816ACF466E271E08BED91E03A
:100D9000CF911F910F91FF90EF90DF90CF90BF9078
:100DA000AF909F908F907F906F905F904F900C943A
:100DB000F1052FEF3FEF4FE75FECC701B6010E944F
:100DC000CB0B87FDE1CF20E030E0A901C701B601E0
:100DD0000E94CB0B10E000E087FF0AC06DE28BEDB4
:100DE00091E00E941B028C01F7FAF094F7F8F0945E
:100DF000C0E060E070E080E09FE37C1641F020E01E
:100E000030E040E251E40E94D00BCF5FF6CFA70163
:100E100096010E945F0B2B013C010E94490C4B0183
:100E20005C012AE0BC01A4018BED91E00E94000668
:100E30007C01E00EF11ECC23D1F1C501B4010E946A
:100E4000780C9B01AC01C301B2010E945E0B4B0107
:100E50005C016EE28BED91E00E941B02E80EF91E30
:100E6000C15028F120E030E040E251E4C501B40176
:100E70000E94870D2B013C010E94490C4B01B12CB3
:100E8000A12C2AE0B501A4018BED91E00E9400069F
:100E9000E80EF91EC501B4010E94780C9B01AC015B
:100EA000C301B2010E945E0B4B015C01D9CFC701A7
:100EB000CF911F910F91FF90EF90DF90CF90BF9057
:100EC000AF909F908F907F906F905F904F9008951C
:100ED0000F931F93CF93DF93EC010E94F1058C01D8
:100EE0006AE271E0CE010E94F105800F911FDF914F
:100EF000CF911F910F9108950C94F1051F920F92BD
:100F00000FB60F9211242F933F934F935F936F93DC
:100F10007F938F939F93AF93BF93EF93FF938BED4B
:100F200091E00E94F901FF91EF91BF91AF919F91E4
:100F30008F917F916F915F914F913F912F910F9082
:100F40000FBE0F901F9018951F920F920FB60F9221
:100F500011242F938F939F93EF93FF93E091EB01D5
:100F6000F091EC018081E091F101F091F20182FDBC
:100F70001BC090818091F4018F5F8F732091F501E8
:100F8000821741F0E091F401F0E0E552FE4F958FB9
:100F90008093F401FF91EF919F918F912F910F908A
:100FA0000FBE0F901F9018958081F4CF1F920F9263
:100FB0000FB60F9211242F933F938F939F93AF936C
:100FC000BF938091D7019091D801A091D901B091A0
:100FD000DA013091D10123E0230F2D3758F5019626
:100FE000A11DB11D2093D1018093D7019093D80109
:100FF000A093D901B093DA018091D2019091D301ED
:10100000A091D401B091D5010196A11DB11D80938D
:10101000D2019093D301A093D401B093D501BF9195
:10102000AF919F918F913F912F910F900FBE0F9095
:101030001F90189526E8230F0296A11DB11DD2CF4F
:101040001F920F920FB60F9211242F933F934F933D
:101050005F936F937F938F939F93AF93BF93CF9340
:10106000EF93FF9381E08093D60180E00E94DD053D
:1010700066E971E08BE892E00E947C0781E00E94C3
:10108000DD058091D001882351F16BE971E08BE897
:1010900092E00E947C07C1E060E085E00E94880247
:1010A0008C2F0E947A0461E085E00E948802809182
:1010B000D00191E089278093D001FF91EF91CF91EA
:1010C000BF91AF919F918F917F916F915F914F9160
:1010D0003F912F910F900FBE0F901F90189566EAC9
:1010E00071E08BE892E00E947C07C0E0D5CF1F92B0
:1010F0000F920FB60F9211248F929F92AF92BF92D0
:10110000CF92DF92EF92FF922F933F934F935F9393
:101110006F937F938F939F93AF93BF93EF93FF93BF
:10112000189B82C081E480937C0080917A00806467
:1011300080937A0080917A0086FDFCCF80917800C0
:1011400060917900762F682F072E000C880B990B81
:101150000E947A0C2AE038E240EA5BE30E94870DA5
:101160004B015C0120E030E040EA50E40E94D00BEB
:101170000E942F0D20E030E040EA51E40E94870DEC
:101180006B017C0120E030E0A9010E942A0D1816B5
:1011900024F0F7FAF094F7F8F09461EB71E08BED3E
:1011A00091E00E947C0744E0C501B4010E948606DC
:1011B00062EC71E08BED91E00E947C0742E0C70198
:1011C000B6010E94860666EC71E08BED91E00E940C
:1011D000680723E333E343EC50E4C701B6010E9400
:1011E0002A0D87FD21C02AE939E949EC50E4C701FD
:1011F000B6010E94CB0B1816BCF069EC71E08BEDC8
:1012000091E00E946807F090D00160E085E00E94C4
:1012100088028F2D0E947A0461E085E00E94880296
:1012200081E0F826F092D001FF91EF91BF91AF914C
:101230009F918F917F916F915F914F913F912F91EE
:10124000FF90EF90DF90CF90BF90AF909F908F90E6
:101250000F900FBE0F901F901895EBEDF1E01382E9
:10126000128288EE93E0A0E0B0E084839583A683A9
:10127000B78384E091E09183808385EC90E095874B
:10128000848784EC90E09787868780EC90E0918B50
:10129000808B81EC90E0938B828B82EC90E0958B3D
:1012A000848B86EC90E0978B868B118E128E138E3A
:1012B000148EEBE8F2E01382128286E191E09183D2
:1012C000808383E184838FEF858382E1868389E055
:1012D000878387E0808786E0818784E08287138622
:1012E000148615861686178681E00E943705A8E7C2
:1012F000B2E08EE015968C9315978BE016968C9342
:101300001697E6E1F1E0E4911796EC931797E2E087
:10131000F1E0E4911896EC93189740E85EE360E002
:1013200070E01D964D935D936D937C935097089557
:10133000789484B5826084BD84B5816084BD85B5B0
:10134000826085BD85B5816085BD80916E008160BC
:1013500080936E0010928100809181008260809362
:101360008100809181008160809381008091800064
:101370008160809380008091B10084608093B1008F
:101380008091B00081608093B00080917A00846089
:1013900080937A0080917A00826080937A008091B5
:1013A0007A00816080937A0080917A0080688093CF
:1013B0007A001092C100F89410928000109281007F
:1013C000109285001092840088E09DE3909389003C
:1013D0008093880080918100886080938100809153
:1013E000810085608093810080916F00826080938E
:1013F0006F00789480916B00816080936B00D89A25
:1014000080916800816080936800E091EB01F09129
:10141000EC0182E08083E091E701F091E801108225
:10142000E091E901F091EA018FEC80831092F301E1
:10143000E091EF01F091F00186E08083E091ED0111
:10144000F091EE01808180618083E091ED01F09167
:10145000EE01808188608083E091ED01F091EE01E2
:10146000808180688083E091ED01F091EE018081C0
:101470008F7D80836DE271E08BED91E00E946807C3
:1014800082E00E94370560E08FE00E94D40260E0B5
:1014900088E00E94D40261E08AE00E94D40261E008
:1014A00085E00E94D40261E080E10E94D40262E003
:1014B00080917D020E94D4022FB7F8948091D701C9
:1014C0009091D801A091D901B091DA012FBF805D30
:1014D0009740A109B1098093810290938202A09361
:1014E0008302B093840287E380938A02C0E0D0E055
:1014F0008091D601882309F471C00E946703882374
:1015000051F080917E028B3030F08D3048F0855163
:10151000823008F46EC060E070E080EC9FE71CC091
:101520006091790270E090E080E00E947A0C2DECEE
:101530003CEC4CEC5DE30E94870D6B017C016091FB
:10154000780270E090E080E00E947A0C9B01AC0190
:10155000C701B6010E945F0B0E94420C4B010E9422
:101560006703882309F457C080E00E94B9000E94F5
:10157000420C6B010E946703882309F451C081E08B
:101580000E94B9002B013C01B401092C000C880B0E
:10159000990B0E947A0C9B01AC010E94F40D811101
:1015A00015C0B6010D2C000C880B990B0E947A0C0B
:1015B0009B01AC010E94F40D811108C0A3019201AE
:1015C000C301B2010E94F40D882389F169E371E03F
:1015D0008BED91E00E9468071092D601209709F4E4
:1015E00087CF0E94E501882309F482CF0E94000082
:1015F0007FCF6091780270917902762767277627EE
:1016000090E080E00E94780C2DEC3CEC4CEC5DE32B
:101610000E94870DA1CF60E070E080EC9FE7A7CF2C
:10162000412C512C80EC682E8FE7782EADCF80E0D6
:101630000E94DD0569E571E08BE892E00E947C077D
:10164000B4018BE892E00E944C0663E671E08BE8FF
:1016500092E00E947C0781E00E94DD0565E671E072
:101660008BE892E00E947C07B6018BE892E00E9432
:101670004C0662E771E08BE892E00E94680765E73C
:1016800071E08BED91E00E947C07B4018BED91E05D
:101690000E944C0660E871E08BED91E00E947C07AF
:1016A00063E871E08BED91E00E947C07B6018BED61
:1016B00091E00E944C0661E971E08ACF5058BB2747
:1016C000AA270E94760B0C94F00C0E94E20C38F0D2
:1016D0000E94E90C20F039F49F3F19F426F40C9491
:1016E000DF0C0EF4E095E7FB0C94D90CE92F0E9477
:1016F000010D58F3BA17620773078407950720F0A6
:1017000079F4A6F50C94230D0EF4E0950B2EBA2F68
:10171000A02D0B01B90190010C01CA01A0011124F7
:10172000FF27591B99F0593F50F4503E68F11A16A3
:10173000F040A22F232F342F4427585FF3CF469534
:1017400037952795A795F0405395C9F77EF41F1656
:10175000BA0B620B730B840BBAF09150A1F0FF0F20
:10176000BB1F661F771F881FC2F70EC0BA0F621F0C
:10177000731F841F48F4879577956795B795F795FC
:101780009E3F08F0B0CF9395880F08F09927EE0F91
:101790009795879508950E94B50C08F481E0089507
:1017A0000E94E40B0C94F00C0E94E90C58F00E948B
:1017B000E20C40F029F45F3F29F00C94D90C511150
:1017C0000C94240D0C94DF0C0E94010D68F39923F6
:1017D000B1F3552391F3951B550BBB27AA2762172D
:1017E0007307840738F09F5F5F4F220F331F441F3A
:1017F000AA1FA9F335D00E2E3AF0E0E832D091506E
:101800005040E695001CCAF72BD0FE2F29D0660F5A
:10181000771F881FBB1F261737074807AB07B0E89D
:1018200009F0BB0B802DBF01FF2793585F4F3AF0A3
:101830009E3F510578F00C94D90C0C94240D5F3F19
:10184000E4F3983ED4F3869577956795B795F79529
:101850009F5FC9F7880F911D9695879597F9089511
:10186000E1E0660F771F881FBB1F621773078407AD
:10187000BA0720F0621B730B840BBA0BEE1F88F7BC
:10188000E09508950E94490C6894B1110C94240DC0
:1018900008950E94090D88F09F5798F0B92F992755
:1018A000B751B0F0E1F0660F771F881F991F1AF04B
:1018B000BA95C9F714C0B13091F00E94230DB1E080
:1018C00008950C94230D672F782F8827B85F39F07F
:1018D000B93FCCF3869577956795B395D9F73EF4E4
:1018E00090958095709561957F4F8F4F9F4F08958C
:1018F000E89409C097FB3EF49095809570956195AA
:101900007F4F8F4F9F4F9923A9F0F92F96E9BB275F
:101910009395F695879577956795B795F111F8CFDB
:10192000FAF4BB0F11F460FF1BC06F5F7F4F8F4F46
:101930009F4F16C0882311F096E911C0772321F03C
:101940009EE8872F762F05C0662371F096E8862FD4
:1019500070E060E02AF09A95660F771F881FDAF72B
:10196000880F9695879597F90895990F0008550F58
:10197000AA0BE0E8FEEF16161706E807F907C0F015
:1019800012161306E407F50798F0621B730B840B1D
:10199000950B39F40A2661F0232B242B252B21F4F7
:1019A00008950A2609F4A140A6958FEF811D811D97
:1019B000089597F99F6780E870E060E008959FEFD1
:1019C00080EC089500240A941616170618060906D6
:1019D000089500240A9412161306140605060895A5
:1019E000092E0394000C11F4882352F0BB0F40F42D
:1019F000BF2B11F460FF04C06F5F7F4F8F4F9F4F6D
:101A0000089557FD9058440F551F59F05F3F71F0EE
:101A10004795880F97FB991F61F09F3F79F0879555
:101A20000895121613061406551FF2CF4695F1DFDE
:101A300008C0161617061806991FF1CF869571056E
:101A4000610508940895E894BB2766277727CB01A2
:101A500097F908950E94B50C08F48FEF08950E943D
:101A60003F0D29ED3BE54EED5EE30C94870D16F03E
:101A70000C94F90D0C94DF0C68940C94D90C0E9412
:101A8000090DA8F39923C1F3AEF3DF93CF931F930E
:101A90000F93FF92C92FDD2788232AF02197660F25
:101AA000771F881FDAF720E030E040E85FEB9FE324
:101AB000883920F0803E38F021968F770E945F0BA6
:101AC000E8E6F0E004C00E945F0BE5E9F0E00E9468
:101AD000070E8B01BE01EC01FB2E6F577109759546
:101AE000771F880B990B0E947A0C28E132E741E3BB
:101AF0005FE30E949A0DAF2D9801AE01FF900F9108
:101B00001F91CF91DF910E94760B0C94F00C0E94F4
:101B10009A0D0C94F00C0E94E20C38F00E94E90C33
:101B200020F0952311F00C94D90C0C94DF0C1124A7
:101B30000C94240D0E94010D70F3959FC1F3950F35
:101B400050E0551F629FF001729FBB27F00DB11D41
:101B5000639FAA27F00DB11DAA1F649F6627B00DD1
:101B6000A11D661F829F2227B00DA11D621F739FBA
:101B7000B00DA11D621F839FA00D611D221F749FC8
:101B80003327A00D611D231F849F600D211D822F0F
:101B9000762F6A2F11249F5750409AF0F1F0882336
:101BA0004AF0EE0FFF1FBB1F661F771F881F915063
:101BB0005040A9F79E3F510580F00C94D90C0C942D
:101BC000240D5F3FE4F3983ED4F3869577956795AF
:101BD000B795F795E7959F5FC1F7FE2B880F911D8D
:101BE0009695879597F908950E94B50C880B990BE7
:101BF00008959F3F31F0915020F487957795679530
:101C0000B795880F911D9695879597F90895DF935D
:101C1000CF931F930F93FF92EF92DF927B018C0182
:101C2000689406C0DA2EEF010E949A0DFE01E89436
:101C3000A5912591359145915591A6F3EF010E940B
:101C4000760BFE019701A801DA9469F7DF90EF9017
:101C5000FF900F911F91CF91DF910895A1E21A2E6D
:101C6000AA1BBB1BFD010DC0AA1FBB1FEE1FFF1F40
:101C7000A217B307E407F50720F0A21BB30BE40B90
:101C8000F50B661F771F881F991F1A9469F76095D7
:101C90007095809590959B01AC01BD01CF01089591
:101CA000EE0FFF1F0590F491E02D0994F894FFCFFB
:101CB000000000001B027B01A8016802D901B701E6
:101CC000CB0100000000EB057B01770476046E6118
:101CD0006E00696E66006F7666000D0A0044485417
:101CE0003131207465737421004661696C6564202C
:101CF000746F20726561642066726F6D2044485471
:101D00002073656E736F72210048756D6964697424
:101D1000792000250054656D706572617475726577
:101D200020002A430048756D69646974793A20007F
:101D300025090054656D70657261747572653A208D
:101D400000202A43200054657374007475726E6518
:101D500064206F6E20007475726E6564206F666615
:101D600000416E616C6F6720766F6C7461676520EF
:101D70003A0056202C006442004C4544204F4E004F
:00000001FF
